:02000000E029F5
:0E000600213083120313FD00FD0B07280800B4
:06001400000000000800DE
:10001A000F3083120313FC004730FD00FD0B132839
:0A002A00FC0B132800000000080082
:1000340083160313A51B21288312881323288312F4
:1000440088178316251B2928831208132B2883124B
:1000540008178316A51A31288312881233288312AD
:1000640088168316251A3928831208123B2883120E
:1000740008166F183F2808154028081188150A200B
:1000840088118316A5194928831288134B288312D3
:1000940088178316251951288312081353288312AD
:1000A40008178316A5185928831288125B2883120F
:1000B4008816831625186128831208126328831270
:1000C40008166F18672808156828081188150A206B
:0E00D40088116F1C6F280D2070280320080073
:0E00E2008312031363088A006208820008007C
:1000F000831203136F1083162408A5001A206F14AF
:020100000800F5
:100102009328803083160313A000A628C030A000D5
:10011200A6289430A000A628D430A000A6288030BB
:10012200A000A628831603132008013A0319822887
:100132002008023A031987282008033A03198A285B
:100142002008043A03198D2890282103F000200882
:10015200F0077008A0007008A5001A206F1083161F
:10016200A30123082207840000080319C1282308D9
:10017200220784000008A40078208316A30AB2286C
:0601820083126F14080057
:1001880071208A110A128000840AE20A0319E30A1C
:08019800F003031DC428080058
:1001A0008316031388110811081288120813881384
:1001B00083128811081188130813881208120D2061
:1001C0000D200D208816081688150A2088110D208C
:1001D00088150A2088110D2088150A2088110D2005
:1001E000081288150A2088110D2088150A20881108
:1001F0008812881788150A2088110D208813081680
:1002000088150A208811081288150A2088110D20E7
:1002100088150A208811081688150A2088110D20D3
:10022000081288150A2088118817081788160816DA
:0C02300088150A2088110D206F140800AA
:10023C0083120313F30108307302031857290818AB
:10024C00282925291330FD00FD0B2A290000000068
:10025C00081842297308073CF0007008F1000130BF
:10026C00F000710803193E29F00D7010FF3E38297B
:10027C00F0097008F20555297308073CF000700866
:10028C00F1000130F000710803195029F00D7010C5
:10029C00FF3E4A297008F204081C55295229F30A1A
:0802AC0021297208F00008008E
:1002B40083120313F801F9011030FC00710DF80DDD
:1002C400F90D7408F8027508031C750FF902031878
:1002D40072297408F80775080318750FF9070310D5
:0A02E400F00DF10DFC0B602908007D
:1002EE008929803083160313A0009C29C030A000FA
:1002FE009C299430A0009C29D430A0009C298030E9
:10030E00A0009C29831603132008013A03197829AB
:10031E002008023A03197D292008033A031980297F
:10032E002008043A0319832986292103F0002008A6
:10033E00F0077008A00083126F1470088316A500D2
:10034E001A206F1083162208A5001A206F140800B9
:10035E0083120313EB011A30FD00FD0BB4290000CC
:10036E000818C6293530FD00FD0BBB29081CC12914
:10037E000130EB001A30FD00FD0BC3290000080010
:10038E00831603130810831208102F30FC00BF30A1
:10039E00FD00FD0BD029FC0BD02900000000081435
:1003AE001330FD00FD0BD929000000008316081440
:0203BE00080035
:1003C0003823831603138810D0200C308316A50021
:1003D0001A2001308316A5001A20C721AF216B080F
:1003E000013A031DD02A1E217008EC001E2170085E
:1003F000EE001E217008ED001E217008E6001E218F
:100400007008E400E5016E086C07F000F1010318C4
:10041000F10A6D08F0070318F10A6608F0070318DF
:10042000F10AFF307005F2007108F3000030F305A7
:1004300065087306031D1E2A72086406031DBF2A81
:100440006D08E700E8016C08E900EA010130831655
:10045000A5001A2001308316A0000630A1002F301D
:10046000A200812001308316A0000F30A1002230AD
:10047000A200812002308316A0000230A1002430A7
:10048000A200812002308316A0000E30A10020308F
:10049000A200812001308316A0000C30A1000A3098
:1004A000F4000030F50083126708F0006808F100DE
:1004B0005A210A30F4000030F5005A217808F00083
:1004C0007908F1007008303E8316A20077210130D0
:1004D0008316A0000D30A1000A30F4000030F500B2
:1004E00083126708F0006808F1005A217808F000CC
:1004F0007908F1007008303E8316A200772102309F
:100500008316A0000C30A1000A30F4000030F50082
:1005100083126908F0006A08F1005A210A30F400D9
:100520000030F5005A217808F0007908F1007008D1
:10053000303E8316A200772102308316A0000D30D2
:10054000A1000A30F4000030F50083126908F000C1
:100550006A08F1005A217808F0007908F100700863
:10056000303E8316A2007721D030FC00C930FD0058
:10057000FD0BB82AFC0BB82A00000000CF2A0C3073
:100580008316A5001A2001308316A5001A20013019
:100590008316A0000130A1003630A2008120E02A9D
:1005A00001308316A0000330A1004630A200812054
:1005B00002308316A0000130A1005230A200812039
:1005C0000B30FB002630FC005D30FD00FD0BE62A01
:1005D000FC0BE62AFB0BE62A00000000ED29EF2ABF
:1006700020308400423083120313F000F530E20092
:080680000230E300C420080071
:0405EA002534003480
:0405EE00433400345E
:1005F200483475346D34693464346934743479340C
:060602003A3420340034FC
:0E060800543465346D3470343A342034003488
:1006160043346834653463346B342034733475344E
:100626006D3420346534723472346F34723400346D
:100636004E346F34203472346534733470346F340E
:080646006E3473346534003496
:10064E00663472346F346D342034743468346534E7
:10065E002034733465346E3473346F347234003432
:02400E004A2F37
:00000001FF
